:020000040800F2
:10000000D8E00420F101000859C10108199901083C
:10001000E5A1010863BA00085D6502080000000060
:100020000000000000000000000000001718020897
:10003000051B0108000000005F02000845D7010809
:100040000B0200080B0200080B0200080B0200085C
:100050000B0200080B0200080B0200080B0200084C
:100060000B0200080B0200080B0200080B0200083C
:100070000B0200080B0200080B0200080B0200082C
:100080000B0200080B0200080B020008B7BA0008B8
:1000900097BA00080B0200080B0200080B020008C8
:1000A0000B0200080B0200080B0200080B020008FC
:1000B0000B0200080B0200080B0200080B020008EC
:1000C0000B0200080B0200080B0200080B020008DC
:1000D0000B020008395202085D52020881520208E0
:1000E0000B0200080B0200080B0200080B020008BC
:1000F0000B0200080B0200080B0200080B020008AC
:100100000B020008451102080B0200080B02000850
:10011000F94802086D4902080B0200080B020008AA
:100120000B0200080B0200080B020008CF180108A0
:100130000B0200080B0200080B020008F7BA0008C7
:10014000D7BA00080B0200080B020008C5DD010841
:100150000B0200080B0200080B020008A55202085F
:100160000B0200080B02000837BB000817BB000891
:100170000B0200080B020008000000000B02000840
:100180000B0200080B020008654A0208DD4A02085B
:100190000B0200080B020008000000000B02000820
:1001A0000B0200080B020008000000000000000025
:1001B0000B02000800000000000000000B02000815
:1001C0000B0200080B0200080B0200080B020008DB
:1001D0000B0200080B020008DFF810D000F016FC3C
:1001E0000048004741B50208AFF30080D8E0042082
:1001F0000648804706480047FEE7FEE7FEE7FEE7C1
:10020000FEE7FEE7FEE7FEE7FEE7FEE7252E020833
:10021000D9010008EFF3108072B6704780F31088A0
:10022000704726484FF0FF010170002080F30988D5
:100230002348016881F3088822480121017022487F
:100240004FF08051016062B6FEE71F484FF08051C9
:10025000016070471C484FF080510160704772B6D2
:100260002EF01F0E4EF0090EEFF3098050B11EF074
:10027000100F08BF20ED108A203880E8F00F1349D6
:100280000968086000B5124880475DF804EB114822
:1002900011490A7802700D4810490A680260106816
:1002A00090E8F00F20301EF0100F08BFB0EC108A5D
:1002B00080F309884EF0040E62B6704722ED00E02C
:1002C000180000202300002004ED00E0440000207E
:1002D00055D3010820000020210000204C00002000
:1002E0002DE9F05F0546002092469B46884606466B
:1002F000814640241BE0284641464746224600F0FE
:10030000B5FA53465A46C01A914110D311461846C1
:10031000224600F016F82D1A67EB01084F462246D8
:100320000120002100F00DF817EB00094E41201EBE
:10033000A4F10104DFDC484631462A464346BDE8C5
:10034000F09F202A04DB203A00FA02F100207047D7
:100350009140C2F1200320FA03F319439040704703
:1003600040EA01039B0703D009E008C9121F08C037
:10037000042AFAD203E011F8013B00F8013B521EB7
:10038000F9D27047D2B201E000F8012B491EFBD22E
:1003900070470022F6E710B513460A460446194690
:1003A000FFF7F0FF204610BD30B505462A460B4644
:1003B00012F8010B13F8014B08B1A042F8D01CB1A0
:1003C000002802D06D1CF1E7284630BD421C10F811
:1003D000011B0029FBD1801A704710B5002200E0F4
:1003E000521C835C8C5CA34201D1002BF8D1D8B2A3
:1003F000E1B2401A10BD30B504460020034600E0CB
:100400005B1C934203D2E05CCD5C401BF8D030BD56
:1004100030B505460020034600E05B1C934205D240
:10042000EC5CC85C201A01D1002CF6D130BD000074
:1004300070B50F4D00B92868002412E00A4602E0AA
:100440009E4203D0521C1378002BF9D1DAB222431A
:1004500005D02BB124B1002100F8011B04E00446B3
:10046000401C0678002EE9D12860204670BD0000AF
:10047000901D002070B506462AF054F90468054620
:100480000A220021304600F013FA2C6070BD2DE9DD
:10049000FE4F804681EA0300C00F0C46009021F019
:1004A000004123F00045B8EB0200A94105D24046C7
:1004B000214690461C460B46024623F0004010435E
:1004C00047D0270DC7F30A00C3F30A510290401A20
:1004D000019040286BDAC3F3130040F4801B0098AE
:1004E000924620B10023D2EB030A63EB0B0B019879
:1004F0005946C0F140025046FFF723FF06460D461D
:1005000050465946019A00F0C1F910EB08006141CC
:10051000002487EA115284EAE7731A4340D0009A14
:1005200062B3019A012A4FEA075215DC001B61EB06
:1005300002014FF0004202EA0752CDE90042001CDE
:1005400041F5801132462B4600F0F9F903B0BDE8C1
:10055000F08F40462146F9E7001B61EB0201001CC9
:1005600041F5801300185B412018A2F5001747EBF6
:10057000030140EAD570B6196D4111E06D084FEAEC
:10058000360645EAC0754FEA0752001B61EB0201CF
:10059000001C41F5801149084FEA30000019514113
:1005A00032462B4603B0BDE8F04F00F0B9B90098D1
:1005B000012240000023D0EB020263EBE0730098BD
:1005C00021464FEAE074B8EB000061EB0401E9E773
:1005D00083F000435BE781F0004158E72DE9FE4FCF
:1005E00081EA030404F0004421F0004100944FF03C
:1005F000000B23F0004350EA01045ED052EA0304EA
:100600005BD0C3F30A54C1F30A552C44A4F2F3346B
:100610000194A0FB0254C1F3130141F48011C3F310
:10062000130343F4801301FB024400FB034E840ACE
:10063000970A44EA815447EA8357A4FB0768029566
:100640008D0A05FB07854FEA932C04FB0C54270504
:10065000029D4FEA065847EA1637B5EB08056EEBE0
:10066000070C870E920E47EA811742EA8312A7FB16
:100670000201B6EB0B0164EB00042B0D43EA0C33D3
:100680005E1844EB1C50DA465146E7FB0201C5F305
:1006900013044FEA0B3343EA14534FEA0432019C2C
:1006A00043EA0603A4F10C040294009CCDE900B4D3
:1006B00000F045F903B0BDE8F08F00200146F9E7EE
:1006C0002DE9F04D81EA030404F0004B21F00045D0
:1006D00014464FF0000A23F0004150EA050220D0F2
:1006E00054EA01021DD0C5F30A570246C5F31303AD
:1006F000C1F31300C1F30A5640F4801543F480138C
:10070000A7EB0608101BD64608F2FD3873EB050070
:1007100002D308F1010801E092185B41B8F1000F23
:1007200003DA00200146BDE8F08D00204FF480116F
:10073000064684460EE0171B73EB050705D3121B14
:1007400063EB050306434CEA010C49084FEA30000D
:1007500092185B4150EA0107EDD152EA030012D032
:1007600082EA040083EA0501084305D0101BAB416F
:1007700006D20122002306E000224FF0004302E0EF
:100780006FF0010253101AEB06004CEB085110EB0E
:100790000A0041EB0B01BDE8F04D00F0C1B80EB509
:1007A00040F2334102910021CDE900110A460B4687
:1007B00000F0C5F803B000BDC1F30A5210B5C1F393
:1007C000130140F2FF3341F480119A4201DA002014
:1007D00010BD40F233439A42A2F2334203DC52424C
:1007E00000F044F810BD904010BD00F0004230F021
:1007F00000400AD0C10D01F56071C0F3160042EA55
:100800000151C2084007114370470020014670475C
:1008100030B5041E71F1000404DB4FF00044404287
:1008200064EB0101141E73F1000405DB1C464FF05C
:100830000043524263EB0403994208BF904230BD2B
:1008400030B50B46014600202022012409E021FAA0
:1008500002F59D4205D303FA02F5491B04FA02F59D
:100860002844151EA2F10102F1DC30BD202A04DB70
:10087000203A21FA02F00021704721FA02F3D04019
:10088000C2F120029140084319467047202A06DB36
:10089000CB17203A41FA02F043EAE07306E041FA4E
:1008A00002F3D040C2F1200291400843194670473C
:1008B0002DE9F04791460F4680460446002614F87D
:1008C000015B2DB100F0B4F80068405DC007F6D1BF
:1008D0002B2D02D02D2D18D0641E4A4639462046B5
:1008E00000F0AAF827B13968A14201D1C7F8008009
:1008F00071054FF002040BD54042002803DD29F0BA
:1009000011FF0460A007BDE8F08746F48066E4E7C5
:100910000028F8DA29F006FF04606FF00040F2E7E3
:1009200010B5141E73F1000408DA401C41F10001F7
:1009300092185B411A4301D120F0010010BD2DE94E
:10094000F04D92469B4611B1B1FA81F202E0B0FA45
:1009500080F220329046FFF7F4FC04460F4640EA4E
:100960000A0041EA0B0153465A46084313D0114688
:1009700053EA010019D0C8F140025046FFF776FF54
:1009800005460E46504659464246FFF7DAFC0843F4
:1009900005D0012004E020463946BDE8F08D002056
:1009A000054346EAE0762C4337430A986305E40A98
:1009B000A0EB08000022FD0A44EA47540A3002D5A1
:1009C00000200146E9E7010510196941DDE9084504
:1009D00000196941BDE8F04DA2E7C1F30A52C1F325
:1009E000130140F2FF3341F480119A4202DA0020F1
:1009F0000146704740F233439A42A2F2334202DC8E
:100A00005242FFF733BFFFF79CBC0000064C074D76
:100A100006E0E06840F0010394E8070098471034CE
:100A2000AC42F6D3FFF7DCFB84CC0208A4CC02086E
:100A300000487047B4C002082DE9F05F8246007894
:100A4000002715468B460AF10104B946302801D02B
:100A50009DB113E014F8010B0127782803D0582822
:100A600001D045B10AE00DB1102D07D100271025A6
:100A700014F8010B02E0082500E00A250026B04624
:100A80000EE005FB080005FB06F1012701EB10460F
:100A90001FFA80F8B6F5803F00D3B94614F8010B71
:100AA000294600F018F80028EBDABBF1000F05D05A
:100AB0000FB1641E00E05446CBF80040B9F1000FBE
:100AC00006D029F02FFE02210160C81EBDE8F09F6C
:100AD00048EA0640FAE73A2800D2303820F02002EF
:100AE000412A01D3A2F13700884201D34FF0FF30F1
:100AF000704770B58C1810F8015B15F0070301D131
:100B000010F8013B2A1106D110F8012B03E010F870
:100B1000016B01F8016B5B1EF9D12B0705D4002393
:100B2000521E0DD401F8013BFAE710F8013BCB1A35
:100B3000921C03E013F8015B01F8015B521EF9D52A
:100B4000A142D8D3002070BD002904D0816841F0B3
:100B5000010181607047816821F001018160704767
:100B600010B5074C226807490A40D0E90013194321
:100B7000D0E90230034319431143216010BD000046
:100B800004230140E030FCFF002904D0816841F4D7
:100B9000807181607047816821F480718160704745
:100BA000002904D0816841F4007181607047816838
:100BB00021F400718160704710B501210C022046BC
:100BC0001EF03AFC2046BDE8104000211EF034BC67
:100BD00030B542680F4B1A400C790B6842EA042288
:100BE0001343436083680C4A1340D1E90342224314
:100BF0004D798C6844EA450422431A438260C26AF4
:100C000022F47002097D491EC9B242EA0151C16253
:100C100030BD0000FFFEFFFCFDF7FFC070B50726EA
:100C200009290AD9C568A1F10A0404EB4404A640C5
:100C3000B543A3401D43C56007E0056901EB4104CE
:100C4000A640B543A3401D4305611F23072A09D2CF
:100C5000446B521E02EB820293409C4391400C4332
:100C6000446370BD0D2A09D2046BD21F02EB8202CD
:100C700093409C4391400C43046370BDC46A0D3A99
:100C800002EB820293409C4391400C43C46270BDCE
:100C9000816841F0804181607047002101600171ED
:100CA00041718160C16001610121017570470000DF
:100CB00030B40B4A0021437812F83140A34208D1E6
:100CC00002EBC104646824B102EBC101496830BC85
:100CD0000847491CC9B20E29EED330BC002070472A
:100CE000A4BC020830B40B4A0021437812F831400A
:100CF000A34208D102EBC104646824B102EBC10134
:100D0000496830BC0847491CC9B20E29EED330BC33
:100D10000020704714BD020800B5002805D000204F
:100D200014F0F4F8012802D008E0002000BD0449C6
:100D300001220020CA72002121F05CFC012000BDCC
:100D400098D0022000B5002805D0012014F0DEF86C
:100D5000012802D008E0002000BD0449012081F8EC
:100D60008000002121F046FC012000BD98D0022027
:100D70002DE9F04791461F46022835D21B4A02EB67
:100D800080052980B9FBF7F101F0FF08184A00EB54
:100D90004001B72302F8213002EB81062D23737046
:100DA000307275600124DFF84CA00CE008FB04F001
:100DB00068803146DAF800001BF0C0FF32201CF0DA
:100DC000E9FA641CE4B2BC42F0D3A5F802903146C3
:100DD000DAF800001BF0B2FF64201CF0DBFABDE87B
:100DE000F04705A029F062BCBDE8F087AC110020F7
:100DF00038CC0220601C0020506F776572204D6F48
:100E000064656C205365742041646A7573740D0ABF
:100E10000000000010B5002808D000240246072377
:100E20000621204621F00EFD012010BD002010BD3E
:100E300010B5002808D001240246072306212046C9
:100E400021F000FD012010BD002010BD2DE9F04172
:100E50000246002901D0642A02D90020BDE8F081B1
:100E60000B8840F2EA56A3F5A060E93801D0B342FE
:100E700014D1486890B10D7A521EC2EB021101EBF9
:100E800081041149114F01EB84014FF4967207EB75
:100E90008404012D0DD0022D13D101E00020DDE7E7
:100EA000B34202D125F07AFC0BE0214625F076FC16
:100EB00007E0B34202D125F0F7FB02E0214625F01E
:100EC000F3FB0120CAE7000010980200E0220200B4
:100ED00010B5002807D0002212480023807910F0B6
:100EE000300F02D01BE0002010BD104614F088F82F
:100EF000A8B90121104621F005FD0B49B720087063
:100F00002E2048700B7201204880084800681BF0B2
:100F100015FF32201CF03EFA05A029F0C7FB012086
:100F200010BD0000ECCB0220C0CE0220601C0020CF
:100F3000506F7765722044697361626C65204D65FE
:100F400073736167652053656E640D0A00000000CD
:100F500010B5002806D001231348407B10F0300F55
:100F600002D01EE0002010BD184614F049F8C0B9A8
:100F70000121184621F0C6FC0C49B72008730A4627
:100F80002E2002F10C0150730B720120488008489A
:100F900000681BF0D3FE32201CF0FCF905A029F0FC
:100FA00085FB012010BD0000ECCB0220D8CE022032
:100FB000601C0020506F7765722044697361626C19
:100FC00065204D6573736167652053656E640D0A16
:100FD000000000002DE9F04F89B0044601A801F09F
:100FE000FDFD01A905A82EC92EC02CB1002528465B
:100FF00014F014F820B180E1002009B0BDE8F08FB2
:10100000BFA029F053FB284614F03CF94FF00A0822
:10101000B0FBF8F4284614F099F9012834D00027E1
:10102000BD4EB4F57A7F7DD9B6F80B00A0424FD8FB
:101030007321484304EBC40101EB0411B146B0EB4A
:10104000810F6FD24FF47A701CF0A4F9284614F087
:1010500019F9B0FBF8F4B9F80B20732004EBC401C4
:10106000504301EB0411B0EB810F1AD22146ABA023
:1010700029F01CFB1E21384621F0FAFC02213846DB
:1010800021F04CFC0020B8E70F21284621F0F0FCAD
:10109000AAA029F00BFB0221284621F03FFC0020EA
:1010A000ABE7732002EBC201604301EB0211B0EB2E
:1010B000810F52D2214699A029F0F8FA0221384630
:1010C00021F02CFC1E21384621F0D2FC002094E7B0
:1010D000732100EBC002614302EB0010B1EB800F03
:1010E0003BD24FF47A701CF055F9284614F0CAF838
:1010F000B0FBF8F4B6F80B20732002EBC20160439A
:1011000001EB0211B0EB810F0FD2214683A029F031
:10111000CDFA0221384621F001FC1E21384621F08B
:10112000A7FC00E019E0002067E7732102FB01F053
:1011300004EBC40101EB0411B0EB810F0DD2214689
:1011400076A029F0B3FA1E21384621F091FC022145
:10115000384621F0E3FB00204FE7BDF81D00A04218
:101160000DD2214679A029F0A1FA0221284621F0CA
:10117000D5FB1E21284621F07BFC00203DE776A010
:1011800029F094FA4FF4FA701CF004F979483321ED
:101190004180B6F80B10002432390180764F4FF0B1
:1011A000B70A87F800A02D2179703C727860DFF8CB
:1011B000CCB13946DBF800001BF0C0FD0A201CF062
:1011C000E9F847F230521021204609F0A8FA05EB61
:1011D00045006B4900EBC50000EB010805EB8500FD
:1011E00000EBC50000EB0609B8F80010B9F80B00D9
:1011F000A0F1C802914203DAFA201CF0CBF827E0F4
:10120000C83081425AD905EB450607F826A007EBFE
:1012100086042E2060702572012060802146DBF854
:1012200000001BF08BFD4FF4FA601CF0B3F807F8D8
:1012300026A02D20607025724E4800EB850060606E
:101240002146DBF800001BF079FD0A201CF0A2F813
:1012500047F230521021284609F056FA1728C3D118
:1012600005EB450007F820A007EB80012E224A700D
:10127000002048800D72DBF800001BF05FFD4FF48A
:101280007A701CF087F80221752205FB02F03D4AB6
:10129000104481714170322128460DF089F9B8F867
:1012A000001039A029F002FA1721284621F0E0FBAE
:1012B0000221284621F032FB00209EE6284601F05C
:1012C00015FA012805D1354800EB45000088A9F83A
:1012D0000600284609F0B8FC0121284621F0BCFB95
:1012E000012307220421284621F008FA012128467B
:1012F00021F014FB2AA029F0D9F901207DE6000095
:10130000436861726765205265616479204368654E
:10131000636B0D0A00000000B6CB0220766F6C3ABA
:1013200025642C4261747465727950726573656EC0
:1013300074566F6C3A25640D0A000000E794B5E618
:10134000B1A0E58F8DE68EA50D0A0000766F6C3A90
:1013500025640D0A00000000436861726765205231
:101360006561647920436865636B20446F6E650D29
:101370000A0000000412002030CE0220601C002071
:10138000BC53042098D00220313131312020766FB7
:101390006C203D2025640D0A00000000761100201D
:1013A0004368617267657220526561647920446F99
:1013B0006E650D0A000000002DE9F04F89B004466B
:1013C00001A801F00BFC01A905A82EC92EC02CB163
:1013D0000124204613F022FE20B17CE1002009B058
:1013E000BDE8F08FBDA029F061F9204613F04AFF57
:1013F0000A26B0FBF6F5204613F0A8FF012831D0ED
:10140000B5F57A7F7DD9BB48008BA8424ED87321B1
:10141000484305EBC50101EB0511B0EB810F70D21C
:101420004FF47A701BF0B6FF204613F02BFFB0FB91
:10143000F6F5B04805EBC50101EB0511028B7320F1
:101440005043B0EB810F1AD22946ABA029F02EF9F8
:101450001E21204621F00CFB0221204621F05EFADD
:101460000020BCE70F21204621F002FBAAA029F0B2
:101470001DF90221204621F051FA0020AFE7732028
:1014800002EBC201684301EB0211B0EB810F50D2B5
:10149000294699A029F00AF90221204621F03EFAB6
:1014A0001E21204621F0E4FA002098E7732100EB8A
:1014B000C002694302EB0010B1EB800F39D24FF448
:1014C0007A701BF067FF204613F0DCFEB0FBF6F5E8
:1014D0008849732068430A8B02EBC20101EB0211B9
:1014E000B0EB810F0ED2294683A029F0DFF802214C
:1014F000204621F013FA1E21204621F0B9FA0020DF
:101500006DE716E0732005EBC501504301EB0511B3
:10151000B0EB810F0DD2294677A029F0C7F81E2124
:10152000204621F0A5FA0221204621F0F7F90020FB
:1015300055E7BDF81D00A8420DD229467AA029F032
:10154000B5F80221204621F0E9F91E21204621F0BC
:101550008FFA002043E777A029F0A8F84FF4FA703B
:101560001BF018FF7A493322081DCA806149098B94
:1015700032390180774F4FF0B70A87F80CA03A460E
:101580002D2302F10C0153730C724860DFF8C8B1CF
:10159000DBF800001BF0D2FB0A201BF0FBFE47F239
:1015A00030521021204609F0BAF804EB44006B4A8F
:1015B00000EBC40000EB02084E4904EB840000EB92
:1015C000C40000EB0109B8F80010B9F80B00A0F155
:1015D000C802914203DAFA201BF0DCFE27E0C83093
:1015E000814259D904EB440607F826A007EB86058B
:1015F0002E2068702C72012068802946DBF80000DC
:101600001BF09CFB4FF4FA601BF0C4FE07F826A009
:101610002D2068702C724E4800EB840068602946CB
:10162000DBF800001BF08AFB0A201BF0B3FE47F238
:1016300030521021204609F067F81728C3D104EB77
:10164000440007F820A007EB80012E224A700020FA
:1016500048800C72DBF800001BF070FB4FF47A70CE
:101660001BF098FE022175203D4A604310448171B1
:101670004170322120460CF09BFFB8F8001039A0D1
:1016800029F014F81721204621F0F2F90221204612
:1016900021F044F90020A2E6204601F027F80128B5
:1016A00005D1354800EB44000088A9F80600204623
:1016B00009F0CAFA0121204621F0CEF901230722C0
:1016C0000421204621F01AF80121204621F026F9B4
:1016D0002AA028F0EBFF012081E600004368617238
:1016E000676520526561647920436865636B0D0A04
:1016F00000000000B6CB0220766F6C3A25642C42C5
:1017000061747465727950726573656E74566F6C2E
:101710003A25640D0A000000E794B5E6B1A0E58F14
:101720008DE68EA50D0A0000766F6C3A25640D0AD1
:10173000000000004368617267652052656164794A
:1017400020436865636B20446F6E650D0A000000DE
:101750000412002048CE0220601C0020BC5304204C
:1017600098D00220313131312020766F6C203D201D
:1017700025640D0A000000007611002043686172A4
:1017800067657220526561647920446F6E650D0A49
:101790000000000010B5002902D0B0F57A7F01D911
:1017A000002010BD0A88A2F58063EC3B0DD14B6888
:1017B0005BB1401E59225043097A00F574309030D5
:1017C00001290AD002290DD101E0002010BD0146F7
:1017D0005922184624F0E2FF04E001465922184637
:1017E00024F062FF012010BD2DE9F04F8DB00028DC
:1017F0003CD000F061FF05900020069001A801F0A8
:10180000EDF901A807AC0FC80FC4069813F0EEFB62
:10181000DFF88C920027A9F1180A4FF0B70809F5F4
:101820000876022826D09F4A5088C0F57A6081B297
:10183000ADF82E109C484088C0F57A6080B2814295
:1018400001D9ADF82E001188ADF82C10974D2980E4
:10185000BDF82E006880BDF82720904200D96A802C
:10186000934890F83A20012A71D097E000200DB0FB
:10187000BDE8F08F8D49BDF82520083908889042D1
:1018800022D90220707270702921384621F0F0F8B8
:1018900089F80080022287A138461AF039FC2420FA
:1018A00089F8010089F80870494605981BF046FA46
:1018B0000A201BF06FFD0021384620F0FBFE7EA0C1
:1018C00028F0F4FE0020D2E74A88BDF827008242C3
:1018D00000D948808AF800802D208AF801008AF813
:1018E0000870CAF804107A48514600681BF026FABE
:1018F0000A201BF04FFD384613F09EFB012823D031
:10190000069809F0C1FB0121069821F0A5F80123F2
:1019100007220421069820F0F1FE30461C21FEF734
:1019200038FD0121384621F005F889F8008025208E
:1019300089F8010089F80870494605981BF0FEF9FE
:101940000A201BF027FD6FE0012090E7FFE790F8E9
:101950003D0018B1052801D009281FD15D484FF47A
:10196000FA635D4A008898420CD2108842F21072E5
:101970005043B0FBF3F26C88A2420FD2B0FBF3F0FD
:1019800068800BE0128842F210735A43B2FBF0F306
:101990006C88A34202D2B2FBF0F06880BDF825004B
:1019A000814201D9288011E0BDF82940A1420DD221
:1019B000AB464AA028F07AFEBBF8000000284CD0C5
:1019C000ABF80040214649A028F070FE069813F0BD
:1019D00033FB01284ED06A88298803230698FFF735
:1019E000C7F9012307220421069820F087FE30461C
:1019F0001C21FEF7CEFC0121384620F09BFF89F820
:101A00000080252089F8010089F80870494605986A
:101A10001BF094F90421384620F0F8FD0A201BF051
:101A2000B9FC36A028F042FE069809F02DFB0121F2
:101A3000069821F011F8069809F054FB1BF0F8FC09
:101A400001463046C6F822102A3009F063FB002117
:101A5000384620F03BFE012009E7069800F046FEDC
:101A6000012804D04FF4FA60ABF80000AEE7ABF801
:101A70000040ABE78AF800802D208AF801008AF840
:101A80000870CAF804501248514600681BF056F915
:101A900014201BF07FFC384609F0F6FA0120E6E638
:101AA00078CE0220D0CB0220B6CB02200412002038
:101AB0005A9E02204634000044656D616E642056D3
:101AC0006F6C20546F6F204C617267650D0A0000C7
:101AD000601C0020BC530420620600204141414D9F
:101AE000494E4D494E2C25780D0A00004141414D8B
:101AF000494E4D494E322C25780D0A0043686172DB
:101B0000676520426567696E0D0A00002DE9F04F98
:101B10008BB0002844D000F0CFFD04900126684629
:101B200001F05CF89DE80F0005AC0FC4304613F0DF
:101B30005DFADFF8C8A24FF0B70BAAF10C050AF165
:101B40000C0405F2712702282ED0AD48B0F807002A
:101B5000C0F57A6081B2ADF82A10AA48B0F80F003B
:101B6000C0F57A6080B2814201D9ADF82A00A4485C
:101B7000B0F80510ADF82810A34800F104088180E2
:101B8000BDF82A00A8F80200BDF81F20904201D934
:101B90009D48C2809D4890F83A20012A77D0A6E05F
:101BA00000200BB0BDE8F08F9748BDF81D20083825
:101BB000011D8088904223D99549022081F87E003A
:101BC00078702921304620F053FF8AF80CB08B49F9
:101BD0002420487303228FA130461AF099FA267206
:101BE000214604981BF0AAF80A201BF0D3FB002121
:101BF000304620F05FFD88A028F058FD0020D0E797
:101C000081480838C288BDF81F00824202D97E4A46
:101C1000083AD0807948183880F80CB0774A2D20DF
:101C2000183A50732E7269608148294600681BF08B
:101C300085F80A201BF0AEFB304613F0FDF90128B1
:101C400023D0304609F020FA0121304620F004FF6D
:101C5000012307220421304620F050FD38461C2184
:101C6000FEF797FB0121304620F064FE8AF80CB0A5
:101C70006249252048732672214604981BF05EF8BD
:101C80000A201BF087FB7AE001E0012089E790F849
:101C90003D0018B1052801D0092828D165484FF426
:101CA000FA62594BB0F80B00DFF88CC190420FD2AA
:101CB000BCF8000042F2107C00FB0CF0B0FBF2FC20
:101CC000B3F80690CC4512D2B0FBF2F0D8800EE00B
:101CD000BCF8002042F2107C02FB0CF2B2FBF0FCDC
:101CE000B3F80690CC4502D2B2FBF0F0D880BDF834
:101CF0001D00814202D94449888011E0BDF821903D
:101D000049450DD24DA028F0D1FCB8F800000028BC
:101D10004ED03D48A0F8049049464CA028F0C6FC9F
:101D2000304613F089F9012850D03748B8F8001030
:101D30000323C2883046FFF71BF801230722042142
:101D4000304620F0DBFC38461C21FEF722FB012147
:101D5000304620F0EFFD8AF80CB028492520487362
:101D60002672214604981AF0E9FF0421304620F03B
:101D70004DFC0A201BF00EFB38A028F097FC3046E3
:101D800009F082F90121304620F066FE304609F064
:101D9000A9F91BF04DFB1E49C1F8970007F12A0075
:101DA00009F0B8F90021304620F090FC0120F8E657
:101DB000304600F09BFC012804D013494FF4FA6030
:101DC0008880ADE71048A0F80490A9E70B481838C0
:101DD00080F80CB009492D20183948732E72C5F8C7
:101DE00004801348294600681AF0A8FF14201BF04D
:101DF000D1FA304609F048F90120D2E6A8CE0220F7
:101E0000D0CB0220B6CB0220041200205A9E022022
:101E100098D002204633300044656D616E642056D0
:101E20006F6C20546F6F204C617267650D0A000063
:101E3000601C0020BC530420640600204141414D39
:101E4000494E4D494E2C25780D0A00004141414D27
:101E5000494E4D494E322C25780D0A004368617277
:101E6000676520426567696E0D0A00002DE9F0473D
:101E700080460F461546B8F1020F02D30020BDE898
:101E8000F08708EB480000EBC80127480E18083619
:101E90006FB165B10024DFF89490325D19F8041039
:101EA000914200D192B309F804207CBB01E00020EC
:101EB000E5E7307810F0BE0F2FD03078C00612D58D
:101EC000787820F0300010307870287840F00800E2
:101ED000287017A028F0EAFB01231A460421404687
:101EE00020F00CFC05E0002301220421404620F0F4
:101EF00005FC307880060AD5287840F00800287064
:101F0000012307220321404620F0F8FB05E00023CF
:101F100007220321404620F0F1FB641CE4B2022CAE
:101F2000BBD30120ABE70000BC530420A01100206C
:101F300031313131370D0A0003480021C160416061
:101F40008160018201207047889C02201CB50B4BE8
:101F50000B4901EBC00001680091406801909DF8B9
:101F6000000020F00F00801D8DF800000822694657
:101F700018461FF0B9FD01201CBD0000A09F0518E8
:101F8000B8D9042002460846012A09D0022A05D001
:101F9000032A07D0052A07D103F0FABD05F0E8BAF5
:101FA00005F076BB00F0ACB9704710B500242046B0
:101FB00008F036FE204608F057FE204608F044FEA2
:101FC000641CE4B2022CF2D310BD000010B5322123
:101FD0000B481AF0F9FD0B4CA06070B10848322193
:101FE000C8301AF0F1FDE06040B100200FF000FBB6
:101FF00001200FF0FDFA012010BDFEE7FEE7000012
:1020000008CF02209C110020F0B40F4A002806D00F
:10201000418821B1456815B10124002110E000205C
:10202000F0BC704743784BB112F83160B34205D130
:1020300053681BB128465168F0BC0847491CC9B217
:10204000A142EFD30020EBE794BA0208F0B40F4AA4
:10205000002806D0418821B1456815B1012400212E
:1020600010E00020F0BC704743784BB112F83160AB
:10207000B34205D153681BB128465168F0BC0847EC
:10208000491CC9B2A142EFD30020EBE79CBA020879
:10209000F8B504460D4613F00DF8002100918CB1FF
:1020A000062D0FD370B1A378E1786278267842EAE2
:1020B0000622A2F5B446A53E14D1DA1CAA4203D0EA
:1020C0000020F8BD0020F8BD83290BD16179227969
:1020D00041EA0225A17949060A0EE11D25B12846EB
:1020E0000FF0F0FC0120F8BDE1188A78497842EA47
:1020F000012302F07F010091007960F3DF11994222
:10210000F0D168460FF0D0FCECE7000010B50028D5
:102110000BD01C210648FEF73CF9002008F0A4FD76
:1021200004A028F0C3FA012010BD002010BD00005B
:1021300098D00220456C656374726F6E6963204CA1
:102140006F636B204C6F636B65640D0A00000000C9
:1021500010B500280BD01C210648FEF71AF9012003
:1021600008F082FD04A028F0A1FA012010BD002093
:1021700010BD00000DD10220456C656374726F6E56
:102180006963204C6F636B204C6F636B65640D0A51
:102190000000000010B500280AD0002008F040FD23
:1021A000002008F061FD03A028F080FA012010BD96
:1021B000002010BD456C656374726F6E6963204CBE
:1021C0006F636B20556E6C6F636B65640D0A000066
:1021D00010B500280AD0012008F022FD012008F0E7
:1021E00043FD03A028F062FA012010BD002010BDBD
:1021F000456C656374726F6E6963204C6F636B200E
:10220000556E6C6F636B65640D0A00002DE9F0413B
:102210000446002C2ED020884FF41675A0F580625D
:1022200040F6A666063A0FD0A0F58062CE3A34D0CA
:10223000A0F57F42FF3A57D01FF02CFB0146002942
:1022400052DA0020BDE8F081012080F31088207A66
:10225000284F022810D02A462749384629F096F9F7
:10226000628825496068FEF77BF8002080F31088BB
:102270000120E7E70020E5E717F06AFB62881E48C7
:102280006168FEF76DF82A461B49384629F08EF939
:102290003146042017F041FBE7E7012080F3108866
:1022A000207A164F02280ED02A461349384629F0C4
:1022B0006DF9628810496068FEF752F8002080F3DB
:1022C00010880120BEE717F043FB62880A48616866
:1022D000FEF746F82A460849384629F067F931469C
:1022E000042017F01AFBE9E788B22146BDE8F04167
:1022F0001DF040B800000E0828B6022000000C08AF
:102300000120704770B5134E1BF092F8044600256B
:1023100005EB450036F82010B1B106EB80004268AD
:10232000A24208D8A21A8A420ED3816861B14460E1
:102330000020884708E0D24322448A4204D38168BF
:1023400011B14460002088476D1CEDB2022DDFD32F
:10235000012070BDF81C002070B50546022D1AD270
:10236000C9B1681CC0B220F007FC00210B4801264F
:10237000006800EB850406FA01F22369134201D0DC
:1023800093432361491CC9B20829F4D32846FFF7B7
:10239000DDFD012070BD002070BD0000BC1C0020D0
:1023A00001480069704700000C12002010B5022897
:1023B00001D3002010BD6B21484304491022014481
:1023C00053310348FDF7CCFF014810BDC86203201C
:1023D0007C670320022801D3002070476B2148430B
:1023E00002490844D0F8090070470000C862032081
:1023F000022801D3002070470149085C70470000A3
:102400001C15002010B5022801D3002010BD06497C
:1024100000EB800001EBC001183110220348FDF7EA
:102420009FFF024810BD00007D8203204C700320F6
:10243000022801D30020704700207047022801D3F2
:10244000002070470149085C70470000DB15002040
:102450000048704711A102200A2801D900207047C6
:1024600001490844C07A704710360420002901D081
:10247000022801D300207047034A02EB4000008885
:102480000880012070470000761100200048704746
:1024900082A30220124991F83D10002917D0052986
:1024A00015D0092913D0082913D0022913D00B29DC
:1024B00013D0012911D00A290FD006290DD00729E0
:1024C0000BD0032909D0042907D000F04BB900F044
:1024D00049B9FFF76BBFFFF795BF00F0DFBB000006
:1024E0005A9E0220022801D30020704700EB4001D1
:1024F000C1EBC010024901EB8000401C7047000096
:102500008C7B02200EB540F2E650ADF8000040F69C
:10251000B830ADF802000848019001208DF808009D
:102520006846FFF773FE08B103480EBD03A028F00C
:10253000BDF800200EBD0000747F0220526561646A
:102540002063617264776C20206572720000000065
:1025500010B588B00446002C17D0684600F03EFB4A
:10256000DDE90201CDE90601BDF819002080BDF8C2
:102570001D006080BDF81B00C0F57A60A0804FF49C
:102580007A60E080012008B010BD0020FBE770B544
:1025900005460C46284612F05DFD74B1B0F83412C1
:1025A000218080694FF47A71B0FBF1F06080284699
:1025B00000F09CF8012802D003E0002070BD082044
:1025C0006060012070BD0000014800787047000085
:1025D0002818002070B505460C46284612F03AFD32
:1025E0000CB1022D01D3002070BD05EB450101EBBC
:1025F000C5020F4911440A8822804988C1F57A61D1
:102600006180B0F83402A080284600F06FF80128FD
:1026100009D1284612F0F4FC38B10020A071A0794D
:1026200040F0FC00A071012070BD0120A071F6E710
:10263000BC530420002901D0022801D30020704798
:1026400075225043024A1044006908600120704717
:1026500098D00220022801D300207047014901EBE5
:1026600000107047369302200148806870470000D0
:10267000F40F0020022801D300207047592148435D
:102680000149084470470000F3A50220022801D345
:1026900000207047C0EBC000024900EB4000084436
:1026A000704700000C930220004870475A9E022099
:1026B00000487047589C02200148006F7047000096
:1026C0005806002001480078704700005806002096
:1026D000022801D3042070470349C0EBC000085C06
:1026E00000F00F0070470000AAD10220022801D399
:1026F000012070470149085C704700002810002045
:102700000048704700DA0420F0B502460020022A93
:1027100000D3F0BD00210C4B03EB420513F812402F
:102720000A4A641E012693688C4208DC6A78521EAD
:102730008A4204DB06FA01F2134200D01043491C1E
:10274000C9B20829F0D3F0BD901C00209CD404200D
:10275000034890F82000022800D9022070470000AA
:102760005A9E022010B5022801D3002010BD054951
:10277000C0EB80100144253110220348FDF7F0FD25
:10278000014810BD993E042048360420022801D398
:10279000002070470249C0EB801008440068704771
:1027A000993E0420022801D3002070470149085CAB
:1027B000704700005A18002070B50C46022801D35B
:1027C000002070BD00EB40012D4800EB810595F81D
:1027D000210061284AD0303815F8221F00EB800014
:1027E0006FF02F0606EB40000844C0B209F043F931
:1027F00060716878A978303800EB800006EB400003
:102800000844C0B209F037F92071E87829793038E6
:1028100000EB800006EB40000844C0B209F02BF941
:10282000E0706879A979303800EB800006EB400051
:102830000844C0B209F01FF9A070E879297A30384D
:1028400000EB800006EB40000844C0B209F013F929
:102850006070687AA97A303800EB800006EB40009F
:102860000844C0B209F007F9207006E0AA202070E1
:102870006070A070E07020716071012070BD000078
:102880005A9E0220014901EB0010704727B2022036
:102890000A2801D900207047014908444078704750
:1028A000103604200146012809D0022905D0032949
:1028B00007D0052907D100F0B3B900F0EBB900F05B
:1028C00005BAFFF71DBF704700487047901C0020F5
:1028D000124991F83D10002917D0052915D0092972
:1028E00013D0082913D0022913D00B2913D00129A2
:1028F00011D00A290FD006290DD007290BD00329A2
:1029000009D0042907D0FFF741BFFFF73FBFFFF70A
:1029100061BDFFF78DBD00F0C5B900005A9E0220D1
:102920002DE9FF41002603964FF4BD67ADF8007016
:102930000124ADF8024003AD01958DF808406846CA
:10294000FFF764FC9DF80C0064280CD90396ADF8E1
:102950000070ADF80240019502208DF8080068462D
:10296000FFF754FC002004B0BDE8F08110B5FFF77C
:1029700073FD012801D0002010BD012010BD000012
:10298000004870479CD404207CB50E480E4D0122AF
:1029900000684FF000048168A8788240114208D096
:1029A0000A4941EA002000940194082269461FF078
:1029B0009BF8A878401CC0B2A870082800D3AC705F
:1029C00001207CBDBC1C0020101D0020F0008602F0
:1029D00000281CD00A001AD000220079904218D199
:1029E00048780B7840EA0323C2EBC20000EB4002B8
:1029F0000B4810440381CA788B7842EA0322428153
:102A00004A79097942EA0121818101207047002039
:102A10007047521CD2B2082AE0D300207047000051
:102A2000A8DA04207CB5194D1949687841EA0020DC
:102A3000002400940194082269461FF055F8697833
:102A4000144BC1EBC10000EB40001844027D052A85
:102A500002D30522027501E0521C0275007D801E22
:102A6000032805D3491CC8B26870082800D36C70CD
:102A70006878C0EBC00000EB40001844007D0228DD
:102A800002D3052800D000BF01207CBD101D00200E
:102A9000F0008402A8DA0420002819D00A0017D018
:102AA00000220079904215D1C2EBC20000EB400237
:102AB0000B480023104403758A7882730A79C27325
:102AC0004A7982748A794274C97901740120704705
:102AD00000207047521CD2B2082AE3D3002070476E
:102AE000A8DA04207CB50E480E4D012200684FF094
:102AF0000004816828788240114208D00A4941EADE
:102B0000002000940194082269461EF0EDFF287809
:102B1000401CC0B22870082800D32C7001207CBD56
:102B2000BC1C0020101D0020F000830270B500289E
:102B300047D00A0045D000240079A04243D1C8788C
:102B40000A788B7840EA02604A78120442EA03224B
:102B5000104300EE100AF2EE040AC4EBC40220EEA9
:102B6000200A02EB42031B4ABCEEC00A1A4410EED4
:102B7000100A1060CB790D7943EA05634D798979A4
:102B80002D0445EA01210B4300EE103A20EE200A05
:102B9000BCEEC00A10EE101A51600F490122A2408B
:102BA0000968C96811420AD0B0F5FA7F07D9012136
:102BB00020461BF043F92146002020F07DF801203B
:102BC00070BD002070BD641CE4B2082CB5D3002099
:102BD00070BD0000A8DA0420BC1C002010220149AE
:102BE000FDF7BEBB9AD10220014800687047000083
:102BF000D80F002000487047A09E022001480068BE
:102C000070470000889C0220022801D300207047F2
:102C10000249C0EBC00011F820007047C0D202206A
:102C20000048704710D904200148407D70470000DB
:102C30001036042001480078704700001036042048
:102C400001488068704700000C150020022801D35D
:102C5000002070470149085C70470000DD15002026
:102C6000022801D3002070475921484301490844F4
:102C7000407E7047F3A50220022801D3042070474C
:102C80000349C0EBC000085C00F00F007047000073
:102C9000AAD1022000487047A8DA042000BF002013
:102CA00070470000022801D300207047014951F805
:102CB0002000704738190020022801D300207047F7
:102CC0000149085C704700001C190020004870474B
:102CD00030DC0420022801D33B2070477521484393
:102CE0000249084490F874007047000098D0022010
:102CF000002807D031B100792038C0B2082803D3AA
:102D00000020704700207047C0EBC000034A00EB72
:102D100040001044002101750120704700DA0420B2
:102D20002DE9F04F2DED068B91B04FF0000A0028F1
:102D300028D000260020FB4C12F0A4FA42F21071B9
:102D40004FF00209884233D384F8039084F800904E
:102D50001D2130461FF08CFE312130460BF028FC3F
:102D6000F1A027F0A3FC002130461FF08DFC0322C8
:102D7000F6A1304619F0CCF9002011B0BDEC068B5D
:102D8000BDE8F08F0E2100201FF072FE31210020DF
:102D90000BF00EFC002108461FF076FCECA027F09B
:102DA00085FC0322F2A1002019F0B2F90020E4E72B
:102DB000304612F0CBFA01282DD0EEA027F076FC99
:102DC000F34F4FF4FA60388033207880F149B72010
:102DD000002508702D2048700D724F60EE48006885
:102DE00019F0ACFF64201AF0D5FAEC4805804FF0DA
:102DF000C80847F230521021284607F090FCE749F6
:102E000006EB460000EBC60000EB010B06EB4605A7
:102E100007EB860745E084F8039084F800900F21C3
:102E200030461FF025FE312130460BF0C1FB00215A
:102E300030461FF029FC0322D9A1304619F068F969
:102E4000D8A027F033FC002097E747F2305210213A
:102E5000304607F059FC172860D008F101081FFA26
:102E600088F8B8F1CD0F01D94FF0C80808EB8800F9
:102E70004FF6FF7101EA4000388033207880C54862
:102E8000B72100F8251000EB85012D224A700E7243
:102E90004F60C148006819F051FF4FF4FA701AF002
:102EA00079FA3888BBF80010A0F596729142CCDD13
:102EB00000F596708142C8D2BAF1170F51D0304652
:102EC00012F0E0F942F2107188423AD384F802908D
:102ED00084F800900322B7A1304619F019F91121A6
:102EE00030461FF0C5FDB4A027F0E0FBA948B7218C
:102EF00000F8251000EB85012E224A700020488042
:102F00000E72A548006819F019FF002130461FF025
:102F1000BBFB32201AF03EFA00202EE74FF0170AD2
:102F200084F8029084F80090172130461FF0A0FD2D
:102F30000322A5A1304619F0EBF8A4A027F0B6FBB8
:102F4000BAE7304608F0A0F8012130461FF084FDB2
:102F500001230722042130461FF0D0FB9FA027F059
:102F6000A5FBBAF1170F7CD009A93046FFF77EFA0E
:102F700001A8FFF733FE01A80FC8CDE90723CDE96B
:102F80000501BDF824004FF4FA61884201D8398068
:102F900008E0BDF81D10884201D8388002E041F2F7
:102FA00088303880332078807A48B72100F825109F
:102FB00000EB85012D224A700E724F607648006842
:102FC00019F0BCFE64201AF0E5F97A88398886A0E9
:102FD00027F06CFB0020ABF8000044F620621021C3
:102FE000304607F09CFB4FF4FA780AE044F6206282
:102FF0001021304607F088FB17287CD040461AF095
:10300000C9F93888BBF80010A0F596729142EDDD41
:1030100000F596708142E9D2BAF1170FA3D030467D
:1030200012F030F94FF00A08B0FBF8F00B90304680
:1030300012F0C2F8B0FBF8FB304608F049F84FF444
:103040007A701AF0A7F9304612F01CF9B0FBF8FAC2
:10305000304612F0B1F8B0FBF8F7304608F02EF821
:1030600000E09FE14FF47A701AF094F9304612F0C4
:1030700009F9B0FBF8F00A90304612F09DF8B0FB69
:10308000F8F8304607F004FE304607F0F7FD0A98DE
:10309000CDE9010853465A4600975F480B9927F03F
:1030A00005FB0B98642148430BEBCB01C1EB8B1163
:1030B000B0EB810F06D8CBEB0B1101EB4101B0EB6C
:1030C000810F2ED284F8029084F80090032253A13D
:1030D000304619F01DF80E2130461FF0C9FC0123BF
:1030E0000422194630461FF009FB00E003E04CA023
:1030F00027F0DCFA56E14FF0170A84F8029084F8C2
:10310000009003224DA1304619F002F817213046F5
:103110001FF0AEFC2DA027F0C9FA494827F0C6FAE7
:103120007AE78FE099D002204B312F4B3220426159
:103130007474657220566F6C204C617267652074E0
:1031400068616E203330560D0A00000046313800A9
:10315000494E534F4C5554494F4E45525220706181
:1031600072616D6574657231206572720D0A0000BE
:1031700046313700496E73756C6174696F6E204318
:103180006865636B20426567696E0D0A0000000088
:103190000412002000CE0220601C0020BC5304203A
:1031A00046313900E794B5E6B1A0E58F8DE68EA5EE
:1031B0000D0A00004632310044434F555420455219
:1031C00052310D0A000000004632300032305320E8
:1031D00054494D454F55540D0A0000006B314B3298
:1031E000204F70656E0D0A00424D5344656D616E4F
:1031F00064496E666F2E566F6C203D2025642C420C
:103200004D5344656D616E64496E666F2E437572F1
:10321000203D2025640D0A00E4C90208463233002F
:10322000E7BB9DE7BC98E6A380E6B58BE59B9EE8EF
:10323000B7AFE69585E99A9C5C720A004632320087
:1032400034CA0208642F03D3AAF1C800874216D9F2
:1032500084F8029084F8009003228CA1304618F084
:1032600057FF0E2130461FF003FC012304221946AC
:1032700030461FF043FA86A027F018FA92E00A9829
:10328000A0EB080B0BFB07FB5846FDF788FACDE9CE
:103290000F1041EC180B4046FDF781FACDE90D10F7
:1032A00041EC190B3846FDF77AFA9FED821B53EC7F
:1032B000112BFDF793F953EC192BFDF78FF941EC26
:1032C000190BAAEB07000C9000FB08F0FDF767FA5A
:1032D00053EC192BFDF7DBF853EC182BFDF778F9BD
:1032E00041EC180BA7EB0A0000FB08B0FDF757FAFA
:1032F0008A46074653EC182BFDF7E2F99FED6FABBA
:1033000053EC1A2BFDF76AF9FDF756FA8046DDE912
:103310000F1041EC180BDDE90D1041EC190B0C9866
:10332000FDF73DFA9FED671B53EC112BFDF756F9A6
:1033300053EC192BFDF752F953EC182BFDF748F914
:1033400041EC110B4AEC107B53EC112B51EC100BA0
:10335000FDF7B6F953EC1A2BFDF740F9FDF72CFAFF
:1033600007463A46414659A027F0A0F94DF2D861E8
:10337000884501D38F4215D284F8029084F80090DA
:10338000032258A1304618F0C3FE0E2130461FF02C
:103390006FFB01230422194630461FF0AFF952A0FB
:1033A00027F084F95649B72001F8250001EB850183
:1033B0002E20487001274F800E725248006819F085
:1033C000BDFC322019F0E6FF3046FFF78FF960B9F7
:1033D000304607F039FC002130461FF03DFB00234A
:1033E0000722042130461FF089F93046FFF77EF9A5
:1033F00001280DD04FF47A7019F0CCFF002130462F
:103400001FF042F9207802283ED027700120B4E452
:1034100041F2883842461021304607F080F942F2E6
:10342000107509E042461021304607F06DF9172863
:1034300015D0642019F0AEFF304611F023FFA842EA
:10344000F0D2304607F000FC002130461FF004FBAC
:1034500000230722042130461FF050F9CEE784F8FC
:10346000049084F80090032227A1304618F050FE03
:10347000152130461FF0FCFA302130460BF098F849
:1034800022A027F013F9DCE7002076E4463234006E
:10349000E6ADA3E8B49FE6AF8DE7BABFE5AFB9E507
:1034A0009CB0E998BBE580BCE5BE88E5B08F5C7256
:1034B0000A0000005566035633F92340000000005F
:1034C00000F326415566035633F925404A592052E8
:1034D00070203D2025642C526E203D2025640D0A6D
:1034E0000000000046323500E7BB9DE7BC98E6A32C
:1034F00080E6B58BE69585E99A9CE380800D0A000D
:1035000000CE0220601C00204632360031313133BB
:103510000D0A00002DE9F04F2DED068B91B04FF014
:10352000000A002829D00126FE4C304611F0AAFEE0
:10353000014642F210704FF00209814233D384F801
:10354000039084F800901D2130461FF091FA31213C
:1035500030460BF02DF8F4A027F0A8F800213046F3
:103560001FF092F80222F9A1304618F0D1FD002098
:1035700011B0BDEC068BBDE8F08F0E2101201FF0CD
:1035800077FA312101200BF013F8002101201FF000
:103590007BF8EFA027F08AF80222F5A1012018F0AD
:1035A000B7FD0020E4E7304611F0D0FE012835D009
:1035B000F0A027F07BF8F6494FF4FA62081D8A80E4
:1035C00033214180F34FB7253D733A462D2302F155
:1035D0000C0153730E724860DFF8BCB3DBF80000D7
:1035E00019F0ACFB642019F0D5FEEC490020A1F8DD
:1035F0000B004FF0C80847F230521021304607F058
:103600008EF8E349E54A06EB460000EBC60000EB06
:10361000020B06EB460501EB860745E084F80390B4
:1036200084F800900F2130461FF022FA31213046F5
:103630000AF0BEFF002130461FF026F8D8A027F080
:1036400035F80222DAA1304618F062FD00208FE73B
:1036500047F230521021304607F056F8172860D054
:1036600008F101081FFA88F8B8F1CD0F01D94FF021
:10367000C80808EB88004FF6FF7101EA4000388067
:1036800033207880C348B72100F8251000EB85016E
:103690002D224A700E724F60BF48006819F04EFB31
:1036A0004FF4FA7019F076FE3888BBF80010A0F5D8
:1036B00096729142CCDD00F596708142C8D2BAF183
:1036C000170F51D0304611F0DDFD42F210718842E3
:1036D0003AD384F8029084F80090112130461FF00C
:1036E000C7F9B4A026F0E2FFAA49B72001F82500E7
:1036F00001EB85012E204870002048800E72A648FC
:10370000006819F01BFB002130461EF0BDFF0322AC
:10371000ACA1304618F0FCFC322019F03BFE002032
:1037200026E74FF0170A84F8029084F800901721DA
:1037300030461FF09DF90222A3A1304618F0E8FCA4
:10374000A2A026F0B3FFBAE7304607F09DFC0121A6
:1037500030461FF081F901230722042130461EF074
:10376000CDFF9EA026F0A2FFBAF1170F7ED009A9C7
:103770003046FEF77BFE01A8FFF730FA01A80FC81C
:10378000CDE90723CDE90501BDF824004FF4FA6126
:10379000884201D8398008E0BDF81D10884201D860
:1037A000388002E041F288303880332078807948D0
:1037B000B72100F8251000EB85012D224A700E720A
:1037C0004F607548006819F0B9FA642019F0E2FDFD
:1037D0007A88398884A026F069FF0020ABF80000C1
:1037E00044F620621021304606F099FF4FF4FA7833
:1037F0000AE044F620621021304606F085FF1728C3
:103800007BD0404619F0C6FD3888BBF80010A0F503
:1038100096729142EDDD00F596708142E9D2BAF1DF
:10382000170FA3D0304611F02DFD4FF00A08B0FB62
:10383000F8F00B90304611F0BFFCB0FBF8FB3046BF
:1038400007F046FC4FF47A7019F0A4FD304611F0F1
:1038500019FDB0FBF8FA304611F0AEFCB0FBF8F7FA
:10386000304607F02BFC4FF47A7000E09EE119F02F
:1038700091FD304611F006FDB0FBF8F00A9030469D
:1038800011F09AFCB0FBF8F8304607F001FA304628
:1038900007F0F4F90A98CDE9010853465A46009713
:1038A0005D480B9926F002FF0B98642148430BEB0F
:1038B000CB01C1EB8B11B0EB810F06D8CBEB0B1119
:1038C00001EB4101B0EB810F2AD284F8029084F819
:1038D0000090032251A1304618F01AFC0E21304608
:1038E0001FF0C6F801230422194630461EF006FFD9
:1038F0004BA026F0DBFE59E1FFE74FF0170A84F8F2
:10390000029084F80090172130461FF0B1F82FA0E4
:1039100026F0CCFE494826F0C9FE032248A191E0DA
:1039200094E000000ED102204B312F4B3220426137
:103930007474657220566F6C204C617267652074D8
:1039400068616E203330560D0A00000046370000D3
:10395000494E534F4C5554494F4E45525220706179
:1039600072616D6574657231206572720D0A0000B6
:1039700046360000496E73756C6174696F6E204342
:103980006865636B20426567696E0D0A0000000080
:103990000412002018CE0220601C0020BC5304201A
:1039A000E794B5E6B1A0E58F8DE68EA50D0A00007F
:1039B0004638000044434F555420455252310D0AB9
:1039C00000000000463130004639000032305320FC
:1039D00054494D454F55540D0A0000006B314B3290
:1039E000204F70656E0D0A00424D5344656D616E47
:1039F00064496E666F2E566F6C203D2025642C4204
:103A00004D5344656D616E64496E666F2E437572E9
:103A1000203D2025640D0A00E4C902084631320029
:103A2000E7BB9DE7BC98E6A380E6B58BE59B9EE8E7
:103A3000B7AFE69585E99A9C5C720A0034CA020821
:103A400046313100304618F063FBE8E6642F03D3BB
:103A5000AAF1C800874216D984F8029084F8009031
:103A600003228CA1304618F053FB0E2130461EF085
:103A7000FFFF01230422194630461EF03FFE86A0B8
:103A800026F014FE92E00A98A0EB080B0BFB07FB54
:103A90005846FCF784FECDE90F1041EC180B404668
:103AA000FCF77DFECDE90D1041EC190B3846FCF713
:103AB00076FE9FED821B53EC112BFCF78FFD53EC30
:103AC000192BFCF78BFD41EC190BAAEB07000C90AE
:103AD00000FB08F0FCF763FE53EC192BFCF7D7FC56
:103AE00053EC182BFCF774FD41EC180BA7EB0A0004
:103AF00000FB08B0FCF753FE8A46074653EC182B30
:103B0000FCF7DEFD9FED6FAB53EC1A2BFCF766FD67
:103B1000FCF752FE8046DDE90F1041EC180BDDE9A1
:103B20000D1041EC190B0C98FCF739FE9FED671B4B
:103B300053EC112BFCF752FD53EC192BFCF74EFD07
:103B400053EC182BFCF744FD41EC110B4AEC107BB5
:103B500053EC112B51EC100BFCF7B2FD53EC1A2B6C
:103B6000FCF73CFDFCF728FE07463A46414659A0C3
:103B700026F09CFD4DF2D861884501D38F4215D2C5
:103B800084F8029084F80090032258A1304618F07F
:103B9000BFFA0E2130461EF06BFF012304221946A6
:103BA00030461EF0ABFD52A026F080FD5648B721EE
:103BB00000F8251000EB85012E224A7001274F8066
:103BC0000E725248006819F0B9F8322019F0E2FB81
:103BD0003046FEF78BFD60B9304607F035F800211E
:103BE00030461EF039FF00230722042130461EF024
:103BF00085FD3046FEF77AFD01280DD04FF47A702E
:103C000019F0C8FB002130461EF03EFD2078022846
:103C10003ED027700120ABE441F2883842461021A3
:103C2000304606F07CFD42F2107509E04246102154
:103C3000304606F069FD172815D0642019F0AAFB5C
:103C4000304611F01FFBA842F0D2304606F0FCFFD0
:103C5000002130461EF000FF0023072204213046D9
:103C60001EF04CFDCEE784F8049084F800901521F6
:103C700030461EF0FDFE302130460AF099FC03224A
:103C800023A1304618F044FA22A026F00FFDDCE70D
:103C900000206DE446313300E6ADA3E8B49FE6AF03
:103CA0008DE7BABFE5AFB9E59CB0E998BBE580BC4C
:103CB000E5BE88E5B08F5C720A00000055660356C9
:103CC00033F923400000000000F3264155660356F7
:103CD00033F925404A59205270203D2025642C524A
:103CE0006E203D2025640D0A00000000463134009E
:103CF000E7BB9DE7BC98E6A380E6B58BE69585E932
:103D00009A9CE380800D0A0018CE0220601C0020DF
:103D100046313500313131330D0A00002DE9F04FC5
:103D20008BB0044600200990022C7DD27520FC4FF8
:103D300004FB00F6F5191035204611F031FA012880
:103D400010D000230522042120461EF0D7FC0220BB
:103D500007F07EF900286DD0204611F00DF90028FB
:103D600047D142E0204611F007F918B9204611F07A
:103D700011F998B3204611F039F9012804D02046F2
:103D800011F034F9032829D1204606F05DFF002107
:103D900020461EF061FE00230722042120461EF06B
:103DA000ADFC204606F03CFFA87820F00C00001D7A
:103DB000A870B85D40F00200B8550322D9A1204692
:103DC00018F0A6F90521204602F07AFB9DF82400A0
:103DD00040F004000990D4A026F068FC01230522DD
:103DE000042120461EF08AFCB1E7204611F0D2F8EB
:103DF000D8B1A87820F00300401CA870B85D40F04E
:103E00000200B8550222CAA1204618F081F92921E2
:103E100020461EF02DFE0921204602F051FB9DF8A0
:103E2000240040F0040001E0F8E303E00990C1A0A1
:103E300026F03CFC204611F081F9012809D000232E
:103E40000422194620461EF059FCBC48806868B31D
:103E500052E0204611F090F818B9204611F09AF877
:103E6000E8B1A87820F00300401CA870B85D40F0CD
:103E70000200B8550322B2A1204618F049F90321E7
:103E800020461EF0F5FD0821204602F019FB9DF8A2
:103E9000240040F004000990A6A026F007FC0123AE
:103EA0000422002120461EF029FCCEE7204611F016
:103EB00063F818B9204611F06DF8E8B1A87820F041
:103EC0000300401CA870B85D40F00200B855032202
:103ED0009CA1204618F01CF9162120461EF0C8FDB2
:103EE0003321204602F0ECFA9DF8240040F0040053
:103EF000099090A026F0DAFB204611F00BF901287A
:103F000011D001220023114620461EF0F7FB0123A9
:103F10000622042120461EF0F1FB204611F040F954
:103F200001283ED073E0204611F086F8012831D1F7
:103F3000204611F02FF868BB204611F057F80128F1
:103F400004D0204611F052F8032823D1A87820F09D
:103F50000C00001DA870B85D40F00200B8550322A7
:103F600079A1204618F0D4F80D2120461EF080FDDE
:103F70001721204602F0A4FA9DF8240040F0040026
:103F8000099072A026F092FB01231A46194620469A
:103F90001EF0B4FB00230622042120461EF0AEFBD7
:103FA000BBE700230422012120461EF0A7FB0023CB
:103FB0000522012120461EF0A1FB0222002311460A
:103FC00020461EF09BFB00230222032120461EF008
:103FD00095FB00230522032120461EF08FFB0023C2
:103FE0000622032120461EF089FB0023072203211D
:103FF00020461EF083FB00230722022120461EF0EC
:104000007DFB00230522022120461EF077FB01A83C
:10401000FEF7E4FD01A80FC8CDE90723CDE90501AE
:1040200004EB440000EBC4014A4801EB000ABAF873
:10403000008041F6B050804531D2BDF81800C8303C
:1040400040452CD2204610F097FF18B9204610F0BA
:10405000A1FFF0B1E87820F00C00001DE870B85D19
:1040600040F00200B85503223BA1204618F050F85A
:104070002021204602F024FA182120461EF0F8FCE8
:104080009DF8240040F004000990414633A026F03A
:104090000DFB01230722032120461EF02FFB04EB1A
:1040A000840000EBC4012F4801EB0009B9F80600B9
:1040B00000F5967141455FD240F6B83188425BD336
:1040C000204610F059FF18B9204610F063FF00B3E6
:1040D000E87820F00C00001DE870B85D40F00200A8
:1040E000B855032220A1204618F012F820212046BE
:1040F00002F0E6F9182120461EF0BAFC9DF82400D3
:1041000040F004000990B9F80620414617A026F0B7
:10411000CDFA01230722032120461EF0EFFA35E0F5
:1041200098D002204531380035310D0A00000000DA
:104130004538000035320D0A000000009CD40420F0
:1041400045313700453636004531360035330D0AE6
:1041500000000000BC5304204531350035352C25C6
:10416000780D0A00B6CB02204531340035362C25B7
:10417000782C25780D0A0000BDF81800404505D3BD
:1041800000230722032120461EF0B8FA11F02CF874
:104190008146BDF8140041F2707B48452ED2D945C6
:1041A0002CD2204610F0E8FE18B9204610F0F2FE9E
:1041B000E8B1E87820F00300401CE870B85D40F0FA
:1041C0000200B8550322FDA1204617F0A1FF1421DB
:1041D000204602F075F90A2120461EF049FC9DF8A0
:1041E000240040F004000990F5A026F05FFA0123B6
:1041F0000322022120461EF081FA05E0002303225B
:10420000022120461EF07AFABDF8160048452ED944
:10421000D9452CD2204610F0AFFE18B9204610F038
:10422000B9FEE8B1E87820F00300401CE870B85D02
:1042300040F00200B8550322E3A1204617F068FFC2
:104240001421204602F03CF90A2120461EF010FC01
:104250009DF8240040F004000990D9A026F026FA29
:1042600001230422022120461EF048FA05E0002323
:104270000422022120461EF041FAD449C4EBC400B6
:10428000085C000657D5204610F0B0FE012804D087
:10429000204610F0ABFE03284DD1002010F06CFE3C
:1042A00018B9002010F076FEE8B1E87820F003009D
:1042B000401CE870387840F0020038700322C4A136
:1042C000002017F025FF1921002002F0F9F8112134
:1042D00000201EF0CDFB9DF8240040F00400099062
:1042E000BCA026F0E3F9012010F046FE18B9012029
:1042F00010F050FEF8B1E87820F00300401CE870A0
:1043000097F8750040F0020087F875000322B3A10A
:10431000012017F0FDFE1921012002F0D1F8112132
:1043200001201EF0A5FB9DF8240040F00400099038
:10433000A8A026F0BBF919F07BF8DFF8A4B24BF87F
:104340002400204610F052FE014640F2452204FBB4
:1043500002F0A44AABF1080902EB400209F1100394
:10436000012915D0204610F041FE032810D05BF83B
:10437000240043F82400906949F8240000200A90A2
:104380000AAA29462046FDF771FD01284ED05FE0BC
:10439000204610F0F1FD18B9204610F0FBFDA8B33F
:1043A00059F824009169884231D15BF8240053F810
:1043B0002420904201D3821A01E0D2430244DFF864
:1043C00028C26245DAD343F8240049F82410E8787B
:1043D00020F00300401CE870B85D40F00200B855C2
:1043E000032282A1204617F093FE3221204602F0DC
:1043F00067F8292120461EF03BFB9DF8240040F081
:10440000040009907AA026F051F9B7E706E05BF8BE
:10441000240043F8240049F82410AFE75BF8240097
:1044200043F82400906949F82400A7E79DF8280084
:10443000042807D1032271A1204617F069FE70A05D
:1044400026F034F99DF824009DF8281008430990BF
:10445000204610F0F1FDDFF888B104EB8409ABF1E0
:10446000280B012809D1204610F0C0FD012826D0D4
:10447000204610F0BBFD032821D018F0D9FF4BF8DF
:1044800024005749203941F8240018F0D1FF54493D
:10449000183941F82400083141F82400204610F072
:1044A000E3FE002870D001230722042120461EF0DD
:1044B00025F9554890F8450000287DD007E118F00F
:1044C000B7FF4BF824005149BAF8022009EB010B61
:1044D00041F20403BBF80210591A8A423AD9404902
:1044E000203951F82410884201D3401A01E0C94311
:1044F000084443F69821884230D3204610F03CFD12
:1045000018B9204610F046FD18B3E87820F00300F3
:10451000401CE870B85D40F00200B85503223CA191
:10452000204617F0F5FD2221204601F0C9FF1A218F
:1045300020461EF09DFA9DF8240040F004000990EA
:1045400001230622032120461EF0D8F831A026F0D0
:10455000ADF803E02249203941F8240018F068FF43
:104560001F49183941F82400BBF80010BAF80020A0
:1045700001F596718A4273D91949103951F82410FE
:10458000884202D3401A02E06EE0C943084442F276
:104590001071884282D3204610F0EEFC18B92046F4
:1045A00010F0F8FC48B1E87820F00C00001DE8702D
:1045B000B85D40F0020032E05DE049E04531330093
:1045C000616335370D0A000045313200AAD102205F
:1045D00045363300646335370D0A00004536340034
:1045E000DC11002013A90220C0D40100453635009B
:1045F000706F77657235370D0A0000004531310064
:1046000035380D0A000000005A9E0220D0CB02204F
:10461000453130003537370D0A20000080E0B855AD
:10462000022243A1204617F073FD2021204601F00D
:1046300047FF182120461EF01BFA9DF8240040F089
:1046400004000990BBF8002041463AA026F02EF85D
:1046500001230722032120461EF050F81EE7FFE742
:104660003A4941F8240019E7002307220421204693
:104670001EF044F81DE7204606F0F2FB344901EB3A
:104680000918B8F84A10884206D8204606F0F3FB0D
:10469000B8F84E1088421AD9A87820F00300401CC0
:1046A000A870B85D40F00200B855022229A120464A
:1046B00017F02EFD0C2120461EF0DAF916212046B7
:1046C00001F0FEFE9DF8240040F004000990204611
:1046D00010F052FC20B9204610F05CFC00281FD0DE
:1046E000BA5D002A1CD021461BA025F0DFFF204A1E
:1046F00004EB4400B82102F8201002EB80012323D0
:104700004B700120488009A848600C720F4830386F
:104710004CB1C06818F012FB4FF47A7018F03AFEF2
:104720000BB0BDE8F08F1146806818F007FBF3E787
:104730004539000035352C566F6C203D2025642C02
:1047400042434C203D2025640D0A0000CC1100207E
:10475000CC6202204537000047554E203D2025649D
:104760002C546F74616C4572723A25780D0A000002
:10477000F0CE022010B50446022C33D2204610F0B1
:10478000DFFDE3280DD0204610F00AFD002829D1D6
:10479000012120461EF020F9204610F0EDFB58B113
:1047A0000EE0204610F0FCFC01281BD12046BDE89D
:1047B000104000211EF010B9204610F0EBFB28B18C
:1047C0002046BDE8104001211DF05EBF20460CF0E0
:1047D0000FFF0021204605F09BFE2046BDE810405B
:1047E00005F060BE10BD70B50546002006F030FC37
:1047F0000446284610F0A2FCA0420FD0012C09D19B
:10480000284606F051FC4FF4FA7018F0C3FD284614
:1048100006F02AFA214628461EF0D4F8284606F06B
:10482000DDFA01462846BDE870401EF0C1B8000020
:104830002DE9F04100242E480078FEF733F80546B4
:1048400028001BD018F0B0FA00212A4B03EB81009E
:1048500000690443491CC9B20229F7D3002101268B
:10486000C1EBC10000EB40004219107D052808D3C0
:10487000186806FA01F73843186007E00020BDE821
:10488000F0811F6806FA01F087431F60507C8007A3
:1048900005D5586806FA01F21043586004E05A68DA
:1048A00006FA01F082435A60186806FA01F21042D3
:1048B00002D15868104203D098689043986002E093
:1048C000986810439860224206D19868104203D03D
:1048D000D8681043D86002E0D8689043D860491C7B
:1048E000C9B20829BCD318F075FA0120C7E7000047
:1048F000881C00209CD4042030B4002805D0017A04
:10490000022904D3002030BC70470020FBE70C4A8A
:1049100002EB01120021437812F831409C4208D189
:1049200002EBC104646824B102EBC101496830BCE8
:104930000847491CC9B20229EED30020E3E7000072
:1049400048BF020810B5012809D0022804D0032866
:1049500008D005280BD108E002F030FE07E002F095
:10496000B1FE04E0FDF7CEFC01E001F02FF90120DB
:1049700010BD00007CB50546022D29D241B3088840
:1049800040B31F484419207F012825D008680090B3
:104990008888ADF804001B49BDF8000049781BF079
:1049A0005FFB0246D2B1BDF8021002EB8200B1EB10
:1049B000001F05D94FF6FF7101EA0010ADF80200A3
:1049C000082020769DF8050088B1022814D107E060
:1049D00000207CBD00207CBD00207CBD00207CBD73
:1049E000694628460BF0FAFC30B900207CBD6946C8
:1049F00028460BF0F1FA08B101207CBD00207CBDF7
:104A00009CD40420881C002070B5002813D0406876
:104A100098B11A4902880A8040884FF6FF7300EB6C
:104A2000800003EA40034B80012008711448047F92
:104A30002CB1002070BD002070BD002070BD847EB0
:104A40001048012C08D00A68426089880181012140
:104A500000201DF09DFF0FE00A4C241D2588AA426E
:104A600002D16288934207D00A6842608988018136
:104A7000012100201DF08CFF012070BDE8D404202E
:104A80009CD40420601C002070B5002816D040681B
:104A9000C8B121490288CA8040884FF6FF7300EBF5
:104AA000800003EA40030B81012088721B48447F89
:104AB00074B11BA025F0FAFD002070BD1AA025F0EE
:104AC000F5FD002070BD1BA025F0F0FD002070BD9D
:104AD000C47E1B48012C0AD0D1F80620C0F80A2059
:104AE0004989C181012108461DF052FF11E0144C93
:104AF0000A342588AA4202D16288934209D0D1F8AB
:104B00000620C0F80A204989C181012108461DF00C
:104B10003FFF012070BD0000E8D404209CD4042095
:104B2000617364660D0A0000617364666173646694
:104B30000D0A00006173617364660D0A00000000D5
:104B4000601C0020034608461146012B09D0022BA9
:104B500005D0032B07D0052B07D101F061B802F077
:104B600057BD02F0D9BDFDF7F7BB704770B50028FF
:104B700007D040880D4C002528B1012084F8200082
:104B800003E0002070BD84F8205009A025F08EFDC0
:104B90000B484580058006210171A07E18B10021D7
:104BA00008461DF0F5FE012070BD00009CD40420D5
:104BB00047554E5F412053544F500D0A00000000EE
:104BC000E8D4042070B5002807D040880D4C00259B
:104BD00028B1012084F8210003E0002070BD84F892
:104BE000215009A025F062FD0B480581C5800621F2
:104BF0008172E07E18B1002101201DF0C9FE012064
:104C000070BD00009CD4042047554E5F4220535491
:104C10004F500D0A00000000E8D404200120704726
:104C20000EB5B0F57A7F0CD85AB140F2EC43ADF82E
:104C3000003001928DF808106946FCF7ABFD0120A9
:104C40000EBD00200EBD0EB564280CD85AB140F23E
:104C5000EA53ADF8003001928DF808106946FCF770
:104C6000F5F801200EBD00200EBD0EB564280CD84D
:104C70005AB140F2E953ADF8003001928DF80810B6
:104C80006946FCF7E3F801200EBD00200EBD0000D0
:104C9000002809D041B1007800F07F00401EC0B26A
:104CA000082803D30020704700207047CA788B780B
:104CB000C0EBC00042EA032200EB40030D4802EBC8
:104CC00082021844C2F31A1202814A790B7942EA2D
:104CD000032202EB8202C2F31A124281CA79897955
:104CE00042EA012101EB8101C1F31A118181012006
:104CF0007047000030DC04202DE9F04100280AD084
:104D000049B1007800F07F00401EC2B2082A04D3E7
:104D10000020BDE8F0810020FBE7C8788B78C2EB6B
:104D2000C20440EA032324482044401C43804C79B9
:104D30000D7944EA052505808C794471C9790171A2
:104D4000C2EBC20000EB40061B480027383030445D
:104D5000077505604360437C8D0965F34513857CC9
:104D60004F0967F345150F0967F386158574CD085C
:104D700065F3C30361F30003610861F30413437433
:104D8000002401250C4895400C4FA83806444FF4E8
:104D9000FA783868C068284207D03068404504D99E
:104DA000601CC0B2012119F01FF8641CE4B2082C89
:104DB000EFD30120ADE70000F8DB0420BC1C00208D
:104DC00000280AD0064902690A600178490702D51D
:104DD0000449806908600120704700207047000086
:104DE0008A1100209211002000280AD00649026989
:104DF0004A600178490702D504498069486001206A
:104E000070470020704700008A1100209211002096
:104E10002DE9FF5F0446002001900290FDF7C0FAE3
:104E20000090ACB1616899B1F94E6078F94D4FF0DE
:104E30003A08A6F5DF674FF00B0906F202220A28AE
:104E40000DD2DFE800F00C090D0D15151EEEEFEC8C
:104E5000002004B0BDE8F09F097800F00FFA09E2E5
:104E600032780AB10020F4E7097800F007FA01E28D
:104E70003278012A01D00020EBE7097800F0FEF932
:104E8000F8E1E54890F83D0002286ED196F82C0034
:104E900040B1002128680EF03DF801201DF0BAFC59
:104EA0000020D6E70020FDF7D7FA012850D0FDF703
:104EB00029FB82469AF800B05FEA0A0053D000202E
:104EC00010F064F90178427841EA02248178C078D0
:104ED000090441EA00600443D048B4FBF0F0C0B2DA
:104EE00010F016FB8DF80400CC48B4FBF0F100FB89
:104EF0001141CB48B1FBF0F0C0B210F009FB8DF8C6
:104F00000500C748B4FBF0F100FB114142F21070FC
:104F1000B1FBF0F0C0B210F0FBFA8DF8060042F2DF
:104F20001070B4FBF0F100FB11416420B1FBF0F014
:104F3000C0B210F0EDFA8DF807006420B4FBF0F178
:104F400000FB114010F0E4FA8DF80800002424E082
:104F500087F8008087F8019000207880B149009898
:104F600017F0ECFE1BE0002073E71FE00AEBC40023
:104F7000401C082201A90CF093FA60B10121002025
:104F800024F052FC0121002001F082FA01210020CE
:104F900017F006FB03E0641CE4B25C45E6D3002195
:104FA00028680DF0B7FF01201DF034FC9A4890F8F6
:104FB0003D000B2810D078B105280DD00A280BD061
:104FC000092809D0012807D0062805D0072803D0D2
:104FD000032801D0042821D196F82C0040B10021EB
:104FE00028680DF097FF01201DF014FC002030E729
:104FF0000020FDF731FA012809D187F8008087F8F1
:105000000190002078808749009817F097FE0021D2
:1050100028680DF07FFF01201DF0FCFB2AE105E16F
:1050200000E0CFE07C4890F83D10A0F6EE00039041
:1050300002296ED196F82D0040B1002128680DF0AC
:1050400069FF01201DF0E6FB002002E70020FDF7CC
:1050500003FA012850D0FDF755FA82469AF800B0BD
:105060005FEA0A0053D0012010F090F801784278EE
:1050700041EA02248178C078090441EA00600443CF
:105080006648B4FBF0F0C0B210F042FA8DF80400AC
:105090006248B4FBF0F100FB11416148B1FBF0F054
:1050A000C0B210F035FA8DF805005D48B4FBF0F1A0
:1050B00000FB114142F21070B1FBF0F0C0B210F0F1
:1050C00027FA8DF8060042F21070B4FBF0F100FBF5
:1050D00011416420B1FBF0F0C0B210F019FA8DF864
:1050E00007006420B4FBF0F100FB114010F010FA4F
:1050F0008DF80800002424E087F80C8087F80D90D4
:105100000120F8810399009817F018FE1BE0002099
:105110009FE61FE00AEBC400401C082201A90CF026
:10512000BFF960B10121084624F07EFB0121084649
:1051300001F0AEF90121084617F032FA03E0641CD1
:10514000E4B25C45E6D3002128680DF0E3FE0120BF
:105150001DF060FB304890F83D000B2810D078B16E
:1051600005280DD00A280BD0092809D0012807D01E
:10517000062805D0072803D0032801D0042879D1B8
:1051800096F82D0040B1002128680DF0C3FE0120E3
:105190001DF040FB00205CE60020FDF75DF90128D2
:1051A00008D187F80C8087F80D90F8810399009852
:1051B00017F0C4FD002128680DF0ACFE01201DF0A1
:1051C00029FB57E092F83D000B2812D0022810D09E
:1051D00078B10A280DD009280BD0052809D001285C
:1051E00007D0062805D0072803D0032801D00428BB
:1051F00040D10878012807D103220BA1002016F026
:1052000087FF002017F0F0F901201DF003FB31E0CB
:10521000589C0220AC0200205A9E022000E1F505B5
:1052200040420F00609502204535340092F83D0061
:105230000B2812D0022810D078B109280DD00528EB
:105240000BD0012809D00A2807D0062805D0072846
:1052500003D0032801D004280CD10878012806D1F6
:10526000032205A116F054FF012017F0BDF901201B
:105270001DF0D0FA0120ECE5453533002DE9F05F53
:1052800004460D460C2C02D30020BDE8F09FDFF849
:105290008C9201274FF00208A9F69B16022C01D030
:1052A000042C53D1092D4DD2DFE805F04C053838D8
:1052B0004C47473D4200022C25D001200FF066FFED
:1052C00028B30178427841EA02228178C078090443
:1052D00041EA006002433178592011FB00F0484454
:1052E000C0F81A20C17780F80480022C11D0002168
:1052F0008B480DF00FFE307800211CF041FC317816
:1053000088480F5422E000200FF040FFD8E700202B
:10531000BBE7002184480DF0FDFDECE7834984489C
:105320000DF0F8FD12E0814982480DF0F3FD0DE02B
:105330007E4981480DF0EEFD08E07C497F480DF084
:10534000E9FD03E079497E480DF0E4FD032C01D02E
:10535000052C27D1012D06D0022D72D0032D70D03F
:10536000092D1FD187E03078592110FB01F0484406
:105370000771DFF8D0B1DFF8D0A14FF00009032C9E
:1053800011D00FF097FE584546D1012009F01AFFC1
:1053900018F04EF8306259466C480DF0BBFD012004
:1053A0000DF052F86DE00FF085FE58450DD100204C
:1053B00009F008FF18F03CF8F061624964480DF00C
:1053C000A9FD00200DF040F85BE0F775707D88B115
:1053D00086F8179086F81590002009F0F3FE18F073
:1053E00027F8F0615B495A480DF094FD00200DF05C
:1053F0002BF846E0002158480DF08CFD00201CF0F1
:1054000033FC032255A1002016F082FE9AF8010019
:10541000401C8AF8010034E03776B07D90B186F800
:10542000189086F81690012009F0CCFE18F000F8CC
:105430003062484945480DF06DFD01200DF004F83B
:105440001FE011E0002144480DF064FD032244A157
:10545000012016F05DFE01201CF006FC9AF8010008
:10546000401C8AF801000CE00FF024FE0146304891
:105470000DF050FD05E00FF01DFE014639480DF01E
:1054800049FD012C0BD1002137480DF043FD012DC2
:105490000AD0082D3CD0354929480DF03BFD0120AC
:1054A0001DF0B8F90120F0E60FF090FD044634B38A
:1054B00020786178E27840EA0121A078000440EA8F
:1054C00002600143284D2879C00119F0CDFE2879EA
:1054D000D4F8161008EBC01019F0C6FEA17E042007
:1054E0004FF47842FF290CD0297900EBC1108A21B2
:1054F0000CF022FC00211C480DF00CFDCFE7002031
:10550000C3E6297900EBC11089210CF015FCF1E705
:10551000164909480DF0FEFCC1E70000F3A5022082
:105520004C0300207C9C022038030020AC020020A9
:1055300024030020E8020020D4020020FC02002006
:1055400010030020600300205806002014040020EF
:1055500000040020740300209C0300204536310025
:1055600045363000880300200C020020E4010020B2
:105570002DE9FC5F8146FCF713FF009099F8084085
:10558000022C02D30020BDE8FC9FDFF858B40026AF
:105590000BF299779BF83A00DFF84CA4A7F69B151D
:1055A00001280AD00FF086FD8046B9F1000F02D025
:1055B000287802286FD30020E5E799F80100DFF88A
:1055C0002C844FF03A0923287DD0242802D02528A6
:1055D0004FD161E00320291981F82E0020460FF0F9
:1055E00027FF40F08001592004FB0075697604EB29
:1055F000041000EB4411FE4811220144183105F15A
:105600002400FAF7ADFE022005F81E0F40F24520F7
:1056100060430AEB400707F23F200FF057FDD7F831
:105620003F022862B7F84302A88497F8450285F83C
:1056300026007E61BE61012120461CF0A1FA2046B1
:1056400009F0C0FD9BF83D00082813D004EB44008E
:1056500008F8209008EB800111224A704C800098D5
:1056600017F06CFB9BF83D0080B105280ED009288F
:105670000CD0E3E104EB440008F8209008EB800133
:105680004E704C80009817F059FBEBE70021204644
:1056900024F0CAF8D2E1C8E028192C308670052120
:1056A0000170C4EBC40000EB4001D248084415214E
:1056B000FAF76FFE592004FB00756E760021204634
:1056C00000F0FEFE00E048E004EB041000EB4411A3
:1056D000C74811220144183105F12400FAF740FEB1
:1056E0000220A8779BF83A00012803D10121204627
:1056F00021F056FAFDF79EFA0128BAD10020FDF7F5
:10570000C7F80128B5D19BF83D00022806D028B182
:10571000092803D0052801D008280AD104EB440049
:1057200008F8209008EB80014E704C80009817F02C
:1057300005FB9BF83D0018B1052801D0092898D138
:1057400004EB440008F8209008EB800120224A7006
:105750004C80009817F0F2FA70E128190546407E57
:10576000002886D1A14B04EB440003EB80081122F2
:10577000019088F8012019356E75EE7417F058FE07
:105780009D4901EB8401C86101202870592104FB67
:10579000017528712046FDF79DFA6876052807D126
:1057A000964904EBC400084480795A2800D96E76E3
:1057B000012120461CF0E4F940F2452060430AEB49
:1057C000400000F23F200FF081FCC4EBC40000EB6E
:1057D0004001884808441521FAF7DBFD204609F00E
:1057E000F1FC8248019900F82190A8F802409BF84A
:1057F0003D0018B1052801D009280CD18048005D72
:10580000AA2804D1204623F0CFFD022808D0002189
:10581000204624F009F84146009817F08FFA0DE170
:105820000021204624F000F808E1764880450BD09E
:105830007548804508D07548804505D07448804536
:1058400002D07448804501D100209CE699F80100FF
:10585000DFF8A0B123280BF1150B78D0242802D053
:10586000252845D14EE02819467620460FF0E0FD68
:105870008046592004FB007548F08001697604EBEE
:10588000041000EB44115A4811220144183105F16B
:105890002400FAF765FD012005F81E0F40F24520AF
:1058A00060430AEB4000064600F23F200FF00EFC7A
:1058B00006F23F2630682862B088A884B07985F85F
:1058C0002600002154480DF025FB99F8011052489C
:1058D0004FF4784224290CD0007908F11F0808F011
:1058E000FF01C0010CF028FA012120461CF048F904
:1058F000A4E0007908F11F0808F0FF01C0010CF0D6
:105900001BFAF1E70021204600F0DAFD15213948A5
:10591000FAF73FFD15215846FAF73BFD04EB04105A
:1059200000EB4411324811220144592000FB04705D
:10593000054618312430FAF713FD0120A8773CB151
:105940000FF0E2FE002135480DF0E4FA76E006E0C3
:105950000FF0BEFE002132480DF0DCFA6EE028198F
:10596000417EE9BB4FF0010980F819902046FDF710
:10597000B1F9592101FB04714876012120461CF040
:10598000FFF840F2452060430AEB400000F23F2060
:105990000FF09CFB2000234F42F2107450D01521D1
:1059A0005846FAF7F6FC85F81690287EC8B12E7690
:1059B000AE75DAF89E14DAF8B606814208D30219F9
:1059C000914205D8CAF89E04DAF8BA06CAF8A204C9
:1059D000012009F0F7FB144914480DF09BFA27E069
:1059E0002CE060E05A9E022013A902207895022044
:1059F00054CB02200C930220589C0220DACB0220C8
:105A00002A100020B4040020C80400202C05002027
:105A1000400500205405002060030020C40300203E
:105A2000B0030020740300209C0300201404002015
:105A300001200CF009FD17F0FBFC28620120A2E513
:105A400015211F48FAF7A5FC85F81590E87DF0B1FF
:105A5000EE756E75DAF81410DAF82C02814208D36C
:105A60000219914205D8CAF81400DAF83002CAF8CF
:105A70001800002009F0A6FB124913480DF04AFA5D
:105A800000200CF0E1FC17F0D3FCE861D6E76F6072
:105A90000E48804502D00E488045CFD100210D48E8
:105AA0000DF038FACAE7AF600B48804502D00B48CA
:105AB0008045C3D1002107480DF02CFABEE7000055
:105AC0000C9302209C03002000040020B00300205F
:105AD0003803002074030020C40300204C0300207E
